{
  "contracts/Calculator.sol": {
    "Calculator": {
      "abi": [
        {
          "inputs": [
            {
              "internalType": "address",
              "name": "owner_",
              "type": "address"
            }
          ],
          "stateMutability": "nonpayable",
          "type": "constructor"
        },
        {
          "anonymous": false,
          "inputs": [
            {
              "indexed": true,
              "internalType": "address",
              "name": "account",
              "type": "address"
            },
            {
              "indexed": false,
              "internalType": "int256",
              "name": "nb1",
              "type": "int256"
            },
            {
              "indexed": false,
              "internalType": "int256",
              "name": "nb2",
              "type": "int256"
            },
            {
              "indexed": false,
              "internalType": "int256",
              "name": "res",
              "type": "int256"
            }
          ],
          "name": "Add",
          "type": "event"
        },
        {
          "anonymous": false,
          "inputs": [
            {
              "indexed": true,
              "internalType": "address",
              "name": "account",
              "type": "address"
            },
            {
              "indexed": false,
              "internalType": "int256",
              "name": "nb1",
              "type": "int256"
            },
            {
              "indexed": false,
              "internalType": "int256",
              "name": "nb2",
              "type": "int256"
            },
            {
              "indexed": false,
              "internalType": "int256",
              "name": "res",
              "type": "int256"
            }
          ],
          "name": "Div",
          "type": "event"
        },
        {
          "anonymous": false,
          "inputs": [
            {
              "indexed": true,
              "internalType": "address",
              "name": "account",
              "type": "address"
            },
            {
              "indexed": false,
              "internalType": "int256",
              "name": "nb1",
              "type": "int256"
            },
            {
              "indexed": false,
              "internalType": "int256",
              "name": "nb2",
              "type": "int256"
            },
            {
              "indexed": false,
              "internalType": "int256",
              "name": "res",
              "type": "int256"
            }
          ],
          "name": "Mod",
          "type": "event"
        },
        {
          "anonymous": false,
          "inputs": [
            {
              "indexed": true,
              "internalType": "address",
              "name": "account",
              "type": "address"
            },
            {
              "indexed": false,
              "internalType": "int256",
              "name": "nb1",
              "type": "int256"
            },
            {
              "indexed": false,
              "internalType": "int256",
              "name": "nb2",
              "type": "int256"
            },
            {
              "indexed": false,
              "internalType": "int256",
              "name": "res",
              "type": "int256"
            }
          ],
          "name": "Mul",
          "type": "event"
        },
        {
          "anonymous": false,
          "inputs": [
            {
              "indexed": true,
              "internalType": "address",
              "name": "account",
              "type": "address"
            },
            {
              "indexed": false,
              "internalType": "int256",
              "name": "nb1",
              "type": "int256"
            },
            {
              "indexed": false,
              "internalType": "int256",
              "name": "nb2",
              "type": "int256"
            },
            {
              "indexed": false,
              "internalType": "int256",
              "name": "res",
              "type": "int256"
            }
          ],
          "name": "Sub",
          "type": "event"
        },
        {
          "inputs": [
            {
              "internalType": "int256",
              "name": "nb1",
              "type": "int256"
            },
            {
              "internalType": "int256",
              "name": "nb2",
              "type": "int256"
            }
          ],
          "name": "add",
          "outputs": [
            {
              "internalType": "int256",
              "name": "",
              "type": "int256"
            }
          ],
          "stateMutability": "nonpayable",
          "type": "function"
        },
        {
          "inputs": [],
          "name": "balances",
          "outputs": [
            {
              "internalType": "uint256",
              "name": "",
              "type": "uint256"
            }
          ],
          "stateMutability": "view",
          "type": "function"
        },
        {
          "inputs": [
            {
              "internalType": "int256",
              "name": "nb1",
              "type": "int256"
            },
            {
              "internalType": "int256",
              "name": "nb2",
              "type": "int256"
            }
          ],
          "name": "div",
          "outputs": [
            {
              "internalType": "int256",
              "name": "",
              "type": "int256"
            }
          ],
          "stateMutability": "nonpayable",
          "type": "function"
        },
        {
          "inputs": [
            {
              "internalType": "int256",
              "name": "nb1",
              "type": "int256"
            },
            {
              "internalType": "int256",
              "name": "nb2",
              "type": "int256"
            }
          ],
          "name": "mod",
          "outputs": [
            {
              "internalType": "int256",
              "name": "",
              "type": "int256"
            }
          ],
          "stateMutability": "nonpayable",
          "type": "function"
        },
        {
          "inputs": [
            {
              "internalType": "int256",
              "name": "nb1",
              "type": "int256"
            },
            {
              "internalType": "int256",
              "name": "nb2",
              "type": "int256"
            }
          ],
          "name": "mul",
          "outputs": [
            {
              "internalType": "int256",
              "name": "",
              "type": "int256"
            }
          ],
          "stateMutability": "nonpayable",
          "type": "function"
        },
        {
          "inputs": [
            {
              "internalType": "int256",
              "name": "nb1",
              "type": "int256"
            },
            {
              "internalType": "int256",
              "name": "nb2",
              "type": "int256"
            }
          ],
          "name": "sub",
          "outputs": [
            {
              "internalType": "int256",
              "name": "",
              "type": "int256"
            }
          ],
          "stateMutability": "nonpayable",
          "type": "function"
        }
      ],
      "evm": {
        "bytecode": {
          "linkReferences": {},
          "object": "608060405234801561001057600080fd5b50604051610a25380380610a258339818101604052810190610032919061008e565b80600160006101000a81548173ffffffffffffffffffffffffffffffffffffffff021916908373ffffffffffffffffffffffffffffffffffffffff16021790555050610100565b600081519050610088816100e9565b92915050565b6000602082840312156100a057600080fd5b60006100ae84828501610079565b91505092915050565b60006100c2826100c9565b9050919050565b600073ffffffffffffffffffffffffffffffffffffffff82169050919050565b6100f2816100b7565b81146100fd57600080fd5b50565b6109168061010f6000396000f3fe608060405234801561001057600080fd5b50600436106100625760003560e01c806324e289281461006757806343509138146100975780637bb98a68146100c7578063a5f3c23b146100e5578063adefc37b14610115578063bbe93d9114610145575b600080fd5b610081600480360381019061007c9190610413565b610175565b60405161008e9190610490565b60405180910390f35b6100b160048036038101906100ac9190610413565b6101e8565b6040516100be9190610490565b60405180910390f35b6100cf61029d565b6040516100dc9190610502565b60405180910390f35b6100ff60048036038101906100fa9190610413565b6102a5565b60405161010c9190610490565b60405180910390f35b61012f600480360381019061012a9190610413565b610318565b60405161013c9190610490565b60405180910390f35b61015f600480360381019061015a9190610413565b61038b565b60405161016c9190610490565b60405180910390f35b60003373ffffffffffffffffffffffffffffffffffffffff167f6ee05db259e2c75313fe23e55e54d32f8e276c8579262c80d1d23d1736f1cfc2848485876101bd91906107eb565b6040516101cc939291906104ab565b60405180910390a281836101e091906107eb565b905092915050565b600080821361022c576040517f08c379a0000000000000000000000000000000000000000000000000000000008152600401610223906104e2565b60405180910390fd5b3373ffffffffffffffffffffffffffffffffffffffff167f32adabaab0fd62df5e0ccd310898a46217e97b7ccad549e2f5872300a4c38b998484858761027291906105c2565b604051610281939291906104ab565b60405180910390a2818361029591906105c2565b905092915050565b600047905090565b60003373ffffffffffffffffffffffffffffffffffffffff167fddc8b811a3df463ed6dc9f3801c74ea7577bd748cb50807dd1c545d67fdbabaa848485876102ed919061052e565b6040516102fc939291906104ab565b60405180910390a28183610310919061052e565b905092915050565b60003373ffffffffffffffffffffffffffffffffffffffff167f0e4c87ef17996acd138664094693fa265888c3aef77146f56bd5ad845c8c98bb848485876103609190610743565b60405161036f939291906104ab565b60405180910390a281836103839190610743565b905092915050565b60003373ffffffffffffffffffffffffffffffffffffffff167fc37c147617a73d8e64bc333614b1d85d97ee02b1d6aa350dd5c945dfb605eff0848485876103d3919061062c565b6040516103e2939291906104ab565b60405180910390a281836103f6919061062c565b905092915050565b60008135905061040d816108c9565b92915050565b6000806040838503121561042657600080fd5b6000610434858286016103fe565b9250506020610445858286016103fe565b9150509250929050565b610458816107d7565b82525050565b600061046b60408361051d565b91506104768261087a565b604082019050919050565b61048a816107e1565b82525050565b60006020820190506104a5600083018461044f565b92915050565b60006060820190506104c0600083018661044f565b6104cd602083018561044f565b6104da604083018461044f565b949350505050565b600060208201905081810360008301526104fb8161045e565b9050919050565b60006020820190506105176000830184610481565b92915050565b600082825260208201905092915050565b6000610539826107d7565b9150610544836107d7565b9250817f7fffffffffffffffffffffffffffffffffffffffffffffffffffffffffffffff0383136000831215161561057f5761057e61081c565b5b817f80000000000000000000000000000000000000000000000000000000000000000383126000831216156105b7576105b661081c565b5b828201905092915050565b60006105cd826107d7565b91506105d8836107d7565b9250826105e8576105e761084b565b5b600160000383147f8000000000000000000000000000000000000000000000000000000000000000831416156106215761062061081c565b5b828205905092915050565b6000610637826107d7565b9150610642836107d7565b9250827f7fffffffffffffffffffffffffffffffffffffffffffffffffffffffffffffff04821160008413600084131616156106815761068061081c565b5b817f800000000000000000000000000000000000000000000000000000000000000005831260008412600084131616156106be576106bd61081c565b5b827f800000000000000000000000000000000000000000000000000000000000000005821260008413600084121616156106fb576106fa61081c565b5b827f7fffffffffffffffffffffffffffffffffffffffffffffffffffffffffffffff05821260008412600084121616156107385761073761081c565b5b828202905092915050565b600061074e826107d7565b9150610759836107d7565b9250827f8000000000000000000000000000000000000000000000000000000000000000018212600084121516156107945761079361081c565b5b827f7fffffffffffffffffffffffffffffffffffffffffffffffffffffffffffffff0182136000841216156107cc576107cb61081c565b5b828203905092915050565b6000819050919050565b6000819050919050565b60006107f6826107d7565b9150610801836107d7565b9250826108115761081061084b565b5b828207905092915050565b7f4e487b7100000000000000000000000000000000000000000000000000000000600052601160045260246000fd5b7f4e487b7100000000000000000000000000000000000000000000000000000000600052601260045260246000fd5b7f4c65207365636f6e64206e6f6d62726520284469766964656e64652920646f6960008201527f74206574726520646966666572656e74206465203020657420706f7369746966602082015250565b6108d2816107d7565b81146108dd57600080fd5b5056fea26469706673582212201f520a9e90d3428a7421f971a8e703abdab4bfea2510576024e018b06410a13364736f6c63430008040033",
          "opcodes": "PUSH1 0x80 PUSH1 0x40 MSTORE CALLVALUE DUP1 ISZERO PUSH2 0x10 JUMPI PUSH1 0x0 DUP1 REVERT JUMPDEST POP PUSH1 0x40 MLOAD PUSH2 0xA25 CODESIZE SUB DUP1 PUSH2 0xA25 DUP4 CODECOPY DUP2 DUP2 ADD PUSH1 0x40 MSTORE DUP2 ADD SWAP1 PUSH2 0x32 SWAP2 SWAP1 PUSH2 0x8E JUMP JUMPDEST DUP1 PUSH1 0x1 PUSH1 0x0 PUSH2 0x100 EXP DUP2 SLOAD DUP2 PUSH20 0xFFFFFFFFFFFFFFFFFFFFFFFFFFFFFFFFFFFFFFFF MUL NOT AND SWAP1 DUP4 PUSH20 0xFFFFFFFFFFFFFFFFFFFFFFFFFFFFFFFFFFFFFFFF AND MUL OR SWAP1 SSTORE POP POP PUSH2 0x100 JUMP JUMPDEST PUSH1 0x0 DUP2 MLOAD SWAP1 POP PUSH2 0x88 DUP2 PUSH2 0xE9 JUMP JUMPDEST SWAP3 SWAP2 POP POP JUMP JUMPDEST PUSH1 0x0 PUSH1 0x20 DUP3 DUP5 SUB SLT ISZERO PUSH2 0xA0 JUMPI PUSH1 0x0 DUP1 REVERT JUMPDEST PUSH1 0x0 PUSH2 0xAE DUP5 DUP3 DUP6 ADD PUSH2 0x79 JUMP JUMPDEST SWAP2 POP POP SWAP3 SWAP2 POP POP JUMP JUMPDEST PUSH1 0x0 PUSH2 0xC2 DUP3 PUSH2 0xC9 JUMP JUMPDEST SWAP1 POP SWAP2 SWAP1 POP JUMP JUMPDEST PUSH1 0x0 PUSH20 0xFFFFFFFFFFFFFFFFFFFFFFFFFFFFFFFFFFFFFFFF DUP3 AND SWAP1 POP SWAP2 SWAP1 POP JUMP JUMPDEST PUSH2 0xF2 DUP2 PUSH2 0xB7 JUMP JUMPDEST DUP2 EQ PUSH2 0xFD JUMPI PUSH1 0x0 DUP1 REVERT JUMPDEST POP JUMP JUMPDEST PUSH2 0x916 DUP1 PUSH2 0x10F PUSH1 0x0 CODECOPY PUSH1 0x0 RETURN INVALID PUSH1 0x80 PUSH1 0x40 MSTORE CALLVALUE DUP1 ISZERO PUSH2 0x10 JUMPI PUSH1 0x0 DUP1 REVERT JUMPDEST POP PUSH1 0x4 CALLDATASIZE LT PUSH2 0x62 JUMPI PUSH1 0x0 CALLDATALOAD PUSH1 0xE0 SHR DUP1 PUSH4 0x24E28928 EQ PUSH2 0x67 JUMPI DUP1 PUSH4 0x43509138 EQ PUSH2 0x97 JUMPI DUP1 PUSH4 0x7BB98A68 EQ PUSH2 0xC7 JUMPI DUP1 PUSH4 0xA5F3C23B EQ PUSH2 0xE5 JUMPI DUP1 PUSH4 0xADEFC37B EQ PUSH2 0x115 JUMPI DUP1 PUSH4 0xBBE93D91 EQ PUSH2 0x145 JUMPI JUMPDEST PUSH1 0x0 DUP1 REVERT JUMPDEST PUSH2 0x81 PUSH1 0x4 DUP1 CALLDATASIZE SUB DUP2 ADD SWAP1 PUSH2 0x7C SWAP2 SWAP1 PUSH2 0x413 JUMP JUMPDEST PUSH2 0x175 JUMP JUMPDEST PUSH1 0x40 MLOAD PUSH2 0x8E SWAP2 SWAP1 PUSH2 0x490 JUMP JUMPDEST PUSH1 0x40 MLOAD DUP1 SWAP2 SUB SWAP1 RETURN JUMPDEST PUSH2 0xB1 PUSH1 0x4 DUP1 CALLDATASIZE SUB DUP2 ADD SWAP1 PUSH2 0xAC SWAP2 SWAP1 PUSH2 0x413 JUMP JUMPDEST PUSH2 0x1E8 JUMP JUMPDEST PUSH1 0x40 MLOAD PUSH2 0xBE SWAP2 SWAP1 PUSH2 0x490 JUMP JUMPDEST PUSH1 0x40 MLOAD DUP1 SWAP2 SUB SWAP1 RETURN JUMPDEST PUSH2 0xCF PUSH2 0x29D JUMP JUMPDEST PUSH1 0x40 MLOAD PUSH2 0xDC SWAP2 SWAP1 PUSH2 0x502 JUMP JUMPDEST PUSH1 0x40 MLOAD DUP1 SWAP2 SUB SWAP1 RETURN JUMPDEST PUSH2 0xFF PUSH1 0x4 DUP1 CALLDATASIZE SUB DUP2 ADD SWAP1 PUSH2 0xFA SWAP2 SWAP1 PUSH2 0x413 JUMP JUMPDEST PUSH2 0x2A5 JUMP JUMPDEST PUSH1 0x40 MLOAD PUSH2 0x10C SWAP2 SWAP1 PUSH2 0x490 JUMP JUMPDEST PUSH1 0x40 MLOAD DUP1 SWAP2 SUB SWAP1 RETURN JUMPDEST PUSH2 0x12F PUSH1 0x4 DUP1 CALLDATASIZE SUB DUP2 ADD SWAP1 PUSH2 0x12A SWAP2 SWAP1 PUSH2 0x413 JUMP JUMPDEST PUSH2 0x318 JUMP JUMPDEST PUSH1 0x40 MLOAD PUSH2 0x13C SWAP2 SWAP1 PUSH2 0x490 JUMP JUMPDEST PUSH1 0x40 MLOAD DUP1 SWAP2 SUB SWAP1 RETURN JUMPDEST PUSH2 0x15F PUSH1 0x4 DUP1 CALLDATASIZE SUB DUP2 ADD SWAP1 PUSH2 0x15A SWAP2 SWAP1 PUSH2 0x413 JUMP JUMPDEST PUSH2 0x38B JUMP JUMPDEST PUSH1 0x40 MLOAD PUSH2 0x16C SWAP2 SWAP1 PUSH2 0x490 JUMP JUMPDEST PUSH1 0x40 MLOAD DUP1 SWAP2 SUB SWAP1 RETURN JUMPDEST PUSH1 0x0 CALLER PUSH20 0xFFFFFFFFFFFFFFFFFFFFFFFFFFFFFFFFFFFFFFFF AND PUSH32 0x6EE05DB259E2C75313FE23E55E54D32F8E276C8579262C80D1D23D1736F1CFC2 DUP5 DUP5 DUP6 DUP8 PUSH2 0x1BD SWAP2 SWAP1 PUSH2 0x7EB JUMP JUMPDEST PUSH1 0x40 MLOAD PUSH2 0x1CC SWAP4 SWAP3 SWAP2 SWAP1 PUSH2 0x4AB JUMP JUMPDEST PUSH1 0x40 MLOAD DUP1 SWAP2 SUB SWAP1 LOG2 DUP2 DUP4 PUSH2 0x1E0 SWAP2 SWAP1 PUSH2 0x7EB JUMP JUMPDEST SWAP1 POP SWAP3 SWAP2 POP POP JUMP JUMPDEST PUSH1 0x0 DUP1 DUP3 SGT PUSH2 0x22C JUMPI PUSH1 0x40 MLOAD PUSH32 0x8C379A000000000000000000000000000000000000000000000000000000000 DUP2 MSTORE PUSH1 0x4 ADD PUSH2 0x223 SWAP1 PUSH2 0x4E2 JUMP JUMPDEST PUSH1 0x40 MLOAD DUP1 SWAP2 SUB SWAP1 REVERT JUMPDEST CALLER PUSH20 0xFFFFFFFFFFFFFFFFFFFFFFFFFFFFFFFFFFFFFFFF AND PUSH32 0x32ADABAAB0FD62DF5E0CCD310898A46217E97B7CCAD549E2F5872300A4C38B99 DUP5 DUP5 DUP6 DUP8 PUSH2 0x272 SWAP2 SWAP1 PUSH2 0x5C2 JUMP JUMPDEST PUSH1 0x40 MLOAD PUSH2 0x281 SWAP4 SWAP3 SWAP2 SWAP1 PUSH2 0x4AB JUMP JUMPDEST PUSH1 0x40 MLOAD DUP1 SWAP2 SUB SWAP1 LOG2 DUP2 DUP4 PUSH2 0x295 SWAP2 SWAP1 PUSH2 0x5C2 JUMP JUMPDEST SWAP1 POP SWAP3 SWAP2 POP POP JUMP JUMPDEST PUSH1 0x0 SELFBALANCE SWAP1 POP SWAP1 JUMP JUMPDEST PUSH1 0x0 CALLER PUSH20 0xFFFFFFFFFFFFFFFFFFFFFFFFFFFFFFFFFFFFFFFF AND PUSH32 0xDDC8B811A3DF463ED6DC9F3801C74EA7577BD748CB50807DD1C545D67FDBABAA DUP5 DUP5 DUP6 DUP8 PUSH2 0x2ED SWAP2 SWAP1 PUSH2 0x52E JUMP JUMPDEST PUSH1 0x40 MLOAD PUSH2 0x2FC SWAP4 SWAP3 SWAP2 SWAP1 PUSH2 0x4AB JUMP JUMPDEST PUSH1 0x40 MLOAD DUP1 SWAP2 SUB SWAP1 LOG2 DUP2 DUP4 PUSH2 0x310 SWAP2 SWAP1 PUSH2 0x52E JUMP JUMPDEST SWAP1 POP SWAP3 SWAP2 POP POP JUMP JUMPDEST PUSH1 0x0 CALLER PUSH20 0xFFFFFFFFFFFFFFFFFFFFFFFFFFFFFFFFFFFFFFFF AND PUSH32 0xE4C87EF17996ACD138664094693FA265888C3AEF77146F56BD5AD845C8C98BB DUP5 DUP5 DUP6 DUP8 PUSH2 0x360 SWAP2 SWAP1 PUSH2 0x743 JUMP JUMPDEST PUSH1 0x40 MLOAD PUSH2 0x36F SWAP4 SWAP3 SWAP2 SWAP1 PUSH2 0x4AB JUMP JUMPDEST PUSH1 0x40 MLOAD DUP1 SWAP2 SUB SWAP1 LOG2 DUP2 DUP4 PUSH2 0x383 SWAP2 SWAP1 PUSH2 0x743 JUMP JUMPDEST SWAP1 POP SWAP3 SWAP2 POP POP JUMP JUMPDEST PUSH1 0x0 CALLER PUSH20 0xFFFFFFFFFFFFFFFFFFFFFFFFFFFFFFFFFFFFFFFF AND PUSH32 0xC37C147617A73D8E64BC333614B1D85D97EE02B1D6AA350DD5C945DFB605EFF0 DUP5 DUP5 DUP6 DUP8 PUSH2 0x3D3 SWAP2 SWAP1 PUSH2 0x62C JUMP JUMPDEST PUSH1 0x40 MLOAD PUSH2 0x3E2 SWAP4 SWAP3 SWAP2 SWAP1 PUSH2 0x4AB JUMP JUMPDEST PUSH1 0x40 MLOAD DUP1 SWAP2 SUB SWAP1 LOG2 DUP2 DUP4 PUSH2 0x3F6 SWAP2 SWAP1 PUSH2 0x62C JUMP JUMPDEST SWAP1 POP SWAP3 SWAP2 POP POP JUMP JUMPDEST PUSH1 0x0 DUP2 CALLDATALOAD SWAP1 POP PUSH2 0x40D DUP2 PUSH2 0x8C9 JUMP JUMPDEST SWAP3 SWAP2 POP POP JUMP JUMPDEST PUSH1 0x0 DUP1 PUSH1 0x40 DUP4 DUP6 SUB SLT ISZERO PUSH2 0x426 JUMPI PUSH1 0x0 DUP1 REVERT JUMPDEST PUSH1 0x0 PUSH2 0x434 DUP6 DUP3 DUP7 ADD PUSH2 0x3FE JUMP JUMPDEST SWAP3 POP POP PUSH1 0x20 PUSH2 0x445 DUP6 DUP3 DUP7 ADD PUSH2 0x3FE JUMP JUMPDEST SWAP2 POP POP SWAP3 POP SWAP3 SWAP1 POP JUMP JUMPDEST PUSH2 0x458 DUP2 PUSH2 0x7D7 JUMP JUMPDEST DUP3 MSTORE POP POP JUMP JUMPDEST PUSH1 0x0 PUSH2 0x46B PUSH1 0x40 DUP4 PUSH2 0x51D JUMP JUMPDEST SWAP2 POP PUSH2 0x476 DUP3 PUSH2 0x87A JUMP JUMPDEST PUSH1 0x40 DUP3 ADD SWAP1 POP SWAP2 SWAP1 POP JUMP JUMPDEST PUSH2 0x48A DUP2 PUSH2 0x7E1 JUMP JUMPDEST DUP3 MSTORE POP POP JUMP JUMPDEST PUSH1 0x0 PUSH1 0x20 DUP3 ADD SWAP1 POP PUSH2 0x4A5 PUSH1 0x0 DUP4 ADD DUP5 PUSH2 0x44F JUMP JUMPDEST SWAP3 SWAP2 POP POP JUMP JUMPDEST PUSH1 0x0 PUSH1 0x60 DUP3 ADD SWAP1 POP PUSH2 0x4C0 PUSH1 0x0 DUP4 ADD DUP7 PUSH2 0x44F JUMP JUMPDEST PUSH2 0x4CD PUSH1 0x20 DUP4 ADD DUP6 PUSH2 0x44F JUMP JUMPDEST PUSH2 0x4DA PUSH1 0x40 DUP4 ADD DUP5 PUSH2 0x44F JUMP JUMPDEST SWAP5 SWAP4 POP POP POP POP JUMP JUMPDEST PUSH1 0x0 PUSH1 0x20 DUP3 ADD SWAP1 POP DUP2 DUP2 SUB PUSH1 0x0 DUP4 ADD MSTORE PUSH2 0x4FB DUP2 PUSH2 0x45E JUMP JUMPDEST SWAP1 POP SWAP2 SWAP1 POP JUMP JUMPDEST PUSH1 0x0 PUSH1 0x20 DUP3 ADD SWAP1 POP PUSH2 0x517 PUSH1 0x0 DUP4 ADD DUP5 PUSH2 0x481 JUMP JUMPDEST SWAP3 SWAP2 POP POP JUMP JUMPDEST PUSH1 0x0 DUP3 DUP3 MSTORE PUSH1 0x20 DUP3 ADD SWAP1 POP SWAP3 SWAP2 POP POP JUMP JUMPDEST PUSH1 0x0 PUSH2 0x539 DUP3 PUSH2 0x7D7 JUMP JUMPDEST SWAP2 POP PUSH2 0x544 DUP4 PUSH2 0x7D7 JUMP JUMPDEST SWAP3 POP DUP2 PUSH32 0x7FFFFFFFFFFFFFFFFFFFFFFFFFFFFFFFFFFFFFFFFFFFFFFFFFFFFFFFFFFFFFFF SUB DUP4 SGT PUSH1 0x0 DUP4 SLT ISZERO AND ISZERO PUSH2 0x57F JUMPI PUSH2 0x57E PUSH2 0x81C JUMP JUMPDEST JUMPDEST DUP2 PUSH32 0x8000000000000000000000000000000000000000000000000000000000000000 SUB DUP4 SLT PUSH1 0x0 DUP4 SLT AND ISZERO PUSH2 0x5B7 JUMPI PUSH2 0x5B6 PUSH2 0x81C JUMP JUMPDEST JUMPDEST DUP3 DUP3 ADD SWAP1 POP SWAP3 SWAP2 POP POP JUMP JUMPDEST PUSH1 0x0 PUSH2 0x5CD DUP3 PUSH2 0x7D7 JUMP JUMPDEST SWAP2 POP PUSH2 0x5D8 DUP4 PUSH2 0x7D7 JUMP JUMPDEST SWAP3 POP DUP3 PUSH2 0x5E8 JUMPI PUSH2 0x5E7 PUSH2 0x84B JUMP JUMPDEST JUMPDEST PUSH1 0x1 PUSH1 0x0 SUB DUP4 EQ PUSH32 0x8000000000000000000000000000000000000000000000000000000000000000 DUP4 EQ AND ISZERO PUSH2 0x621 JUMPI PUSH2 0x620 PUSH2 0x81C JUMP JUMPDEST JUMPDEST DUP3 DUP3 SDIV SWAP1 POP SWAP3 SWAP2 POP POP JUMP JUMPDEST PUSH1 0x0 PUSH2 0x637 DUP3 PUSH2 0x7D7 JUMP JUMPDEST SWAP2 POP PUSH2 0x642 DUP4 PUSH2 0x7D7 JUMP JUMPDEST SWAP3 POP DUP3 PUSH32 0x7FFFFFFFFFFFFFFFFFFFFFFFFFFFFFFFFFFFFFFFFFFFFFFFFFFFFFFFFFFFFFFF DIV DUP3 GT PUSH1 0x0 DUP5 SGT PUSH1 0x0 DUP5 SGT AND AND ISZERO PUSH2 0x681 JUMPI PUSH2 0x680 PUSH2 0x81C JUMP JUMPDEST JUMPDEST DUP2 PUSH32 0x8000000000000000000000000000000000000000000000000000000000000000 SDIV DUP4 SLT PUSH1 0x0 DUP5 SLT PUSH1 0x0 DUP5 SGT AND AND ISZERO PUSH2 0x6BE JUMPI PUSH2 0x6BD PUSH2 0x81C JUMP JUMPDEST JUMPDEST DUP3 PUSH32 0x8000000000000000000000000000000000000000000000000000000000000000 SDIV DUP3 SLT PUSH1 0x0 DUP5 SGT PUSH1 0x0 DUP5 SLT AND AND ISZERO PUSH2 0x6FB JUMPI PUSH2 0x6FA PUSH2 0x81C JUMP JUMPDEST JUMPDEST DUP3 PUSH32 0x7FFFFFFFFFFFFFFFFFFFFFFFFFFFFFFFFFFFFFFFFFFFFFFFFFFFFFFFFFFFFFFF SDIV DUP3 SLT PUSH1 0x0 DUP5 SLT PUSH1 0x0 DUP5 SLT AND AND ISZERO PUSH2 0x738 JUMPI PUSH2 0x737 PUSH2 0x81C JUMP JUMPDEST JUMPDEST DUP3 DUP3 MUL SWAP1 POP SWAP3 SWAP2 POP POP JUMP JUMPDEST PUSH1 0x0 PUSH2 0x74E DUP3 PUSH2 0x7D7 JUMP JUMPDEST SWAP2 POP PUSH2 0x759 DUP4 PUSH2 0x7D7 JUMP JUMPDEST SWAP3 POP DUP3 PUSH32 0x8000000000000000000000000000000000000000000000000000000000000000 ADD DUP3 SLT PUSH1 0x0 DUP5 SLT ISZERO AND ISZERO PUSH2 0x794 JUMPI PUSH2 0x793 PUSH2 0x81C JUMP JUMPDEST JUMPDEST DUP3 PUSH32 0x7FFFFFFFFFFFFFFFFFFFFFFFFFFFFFFFFFFFFFFFFFFFFFFFFFFFFFFFFFFFFFFF ADD DUP3 SGT PUSH1 0x0 DUP5 SLT AND ISZERO PUSH2 0x7CC JUMPI PUSH2 0x7CB PUSH2 0x81C JUMP JUMPDEST JUMPDEST DUP3 DUP3 SUB SWAP1 POP SWAP3 SWAP2 POP POP JUMP JUMPDEST PUSH1 0x0 DUP2 SWAP1 POP SWAP2 SWAP1 POP JUMP JUMPDEST PUSH1 0x0 DUP2 SWAP1 POP SWAP2 SWAP1 POP JUMP JUMPDEST PUSH1 0x0 PUSH2 0x7F6 DUP3 PUSH2 0x7D7 JUMP JUMPDEST SWAP2 POP PUSH2 0x801 DUP4 PUSH2 0x7D7 JUMP JUMPDEST SWAP3 POP DUP3 PUSH2 0x811 JUMPI PUSH2 0x810 PUSH2 0x84B JUMP JUMPDEST JUMPDEST DUP3 DUP3 SMOD SWAP1 POP SWAP3 SWAP2 POP POP JUMP JUMPDEST PUSH32 0x4E487B7100000000000000000000000000000000000000000000000000000000 PUSH1 0x0 MSTORE PUSH1 0x11 PUSH1 0x4 MSTORE PUSH1 0x24 PUSH1 0x0 REVERT JUMPDEST PUSH32 0x4E487B7100000000000000000000000000000000000000000000000000000000 PUSH1 0x0 MSTORE PUSH1 0x12 PUSH1 0x4 MSTORE PUSH1 0x24 PUSH1 0x0 REVERT JUMPDEST PUSH32 0x4C65207365636F6E64206E6F6D62726520284469766964656E64652920646F69 PUSH1 0x0 DUP3 ADD MSTORE PUSH32 0x74206574726520646966666572656E74206465203020657420706F7369746966 PUSH1 0x20 DUP3 ADD MSTORE POP JUMP JUMPDEST PUSH2 0x8D2 DUP2 PUSH2 0x7D7 JUMP JUMPDEST DUP2 EQ PUSH2 0x8DD JUMPI PUSH1 0x0 DUP1 REVERT JUMPDEST POP JUMP INVALID LOG2 PUSH5 0x6970667358 0x22 SLT KECCAK256 0x1F MSTORE EXP SWAP15 SWAP1 0xD3 TIMESTAMP DUP11 PUSH21 0x21F971A8E703ABDAB4BFEA2510576024E018B06410 LOG1 CALLER PUSH5 0x736F6C6343 STOP ADDMOD DIV STOP CALLER "
        },
        "methodIdentifiers": {
          "add(int256,int256)": "a5f3c23b",
          "balances()": "7bb98a68",
          "div(int256,int256)": "43509138",
          "mod(int256,int256)": "24e28928",
          "mul(int256,int256)": "bbe93d91",
          "sub(int256,int256)": "adefc37b"
        }
      }
    }
  }
}