{
  "contracts/Calculator.sol": {
    "Calculator": {
      "abi": [
        {
          "inputs": [
            {
              "internalType": "address",
              "name": "owner_",
              "type": "address"
            }
          ],
          "stateMutability": "nonpayable",
          "type": "constructor"
        },
        {
          "anonymous": false,
          "inputs": [
            {
              "indexed": true,
              "internalType": "address",
              "name": "account",
              "type": "address"
            },
            {
              "indexed": false,
              "internalType": "int256",
              "name": "nb1",
              "type": "int256"
            },
            {
              "indexed": false,
              "internalType": "int256",
              "name": "nb2",
              "type": "int256"
            },
            {
              "indexed": false,
              "internalType": "int256",
              "name": "res",
              "type": "int256"
            }
          ],
          "name": "Add",
          "type": "event"
        },
        {
          "anonymous": false,
          "inputs": [
            {
              "indexed": true,
              "internalType": "address",
              "name": "account",
              "type": "address"
            },
            {
              "indexed": false,
              "internalType": "int256",
              "name": "nb1",
              "type": "int256"
            },
            {
              "indexed": false,
              "internalType": "int256",
              "name": "nb2",
              "type": "int256"
            },
            {
              "indexed": false,
              "internalType": "int256",
              "name": "res",
              "type": "int256"
            }
          ],
          "name": "Div",
          "type": "event"
        },
        {
          "anonymous": false,
          "inputs": [
            {
              "indexed": true,
              "internalType": "address",
              "name": "account",
              "type": "address"
            },
            {
              "indexed": false,
              "internalType": "int256",
              "name": "nb1",
              "type": "int256"
            },
            {
              "indexed": false,
              "internalType": "int256",
              "name": "nb2",
              "type": "int256"
            },
            {
              "indexed": false,
              "internalType": "int256",
              "name": "res",
              "type": "int256"
            }
          ],
          "name": "Mod",
          "type": "event"
        },
        {
          "anonymous": false,
          "inputs": [
            {
              "indexed": true,
              "internalType": "address",
              "name": "account",
              "type": "address"
            },
            {
              "indexed": false,
              "internalType": "int256",
              "name": "nb1",
              "type": "int256"
            },
            {
              "indexed": false,
              "internalType": "int256",
              "name": "nb2",
              "type": "int256"
            },
            {
              "indexed": false,
              "internalType": "int256",
              "name": "res",
              "type": "int256"
            }
          ],
          "name": "Mul",
          "type": "event"
        },
        {
          "anonymous": false,
          "inputs": [
            {
              "indexed": true,
              "internalType": "address",
              "name": "account",
              "type": "address"
            },
            {
              "indexed": false,
              "internalType": "int256",
              "name": "nb1",
              "type": "int256"
            },
            {
              "indexed": false,
              "internalType": "int256",
              "name": "nb2",
              "type": "int256"
            },
            {
              "indexed": false,
              "internalType": "int256",
              "name": "res",
              "type": "int256"
            }
          ],
          "name": "Sub",
          "type": "event"
        },
        {
          "inputs": [
            {
              "internalType": "int256",
              "name": "nb1",
              "type": "int256"
            },
            {
              "internalType": "int256",
              "name": "nb2",
              "type": "int256"
            }
          ],
          "name": "add",
          "outputs": [
            {
              "internalType": "int256",
              "name": "",
              "type": "int256"
            }
          ],
          "stateMutability": "nonpayable",
          "type": "function"
        },
        {
          "inputs": [],
          "name": "balances",
          "outputs": [
            {
              "internalType": "uint256",
              "name": "",
              "type": "uint256"
            }
          ],
          "stateMutability": "view",
          "type": "function"
        },
        {
          "inputs": [],
          "name": "counter",
          "outputs": [
            {
              "internalType": "uint256",
              "name": "",
              "type": "uint256"
            }
          ],
          "stateMutability": "view",
          "type": "function"
        },
        {
          "inputs": [
            {
              "internalType": "int256",
              "name": "nb1",
              "type": "int256"
            },
            {
              "internalType": "int256",
              "name": "nb2",
              "type": "int256"
            }
          ],
          "name": "div",
          "outputs": [
            {
              "internalType": "int256",
              "name": "",
              "type": "int256"
            }
          ],
          "stateMutability": "nonpayable",
          "type": "function"
        },
        {
          "inputs": [
            {
              "internalType": "int256",
              "name": "nb1",
              "type": "int256"
            },
            {
              "internalType": "int256",
              "name": "nb2",
              "type": "int256"
            }
          ],
          "name": "mod",
          "outputs": [
            {
              "internalType": "int256",
              "name": "",
              "type": "int256"
            }
          ],
          "stateMutability": "nonpayable",
          "type": "function"
        },
        {
          "inputs": [
            {
              "internalType": "int256",
              "name": "nb1",
              "type": "int256"
            },
            {
              "internalType": "int256",
              "name": "nb2",
              "type": "int256"
            }
          ],
          "name": "mul",
          "outputs": [
            {
              "internalType": "int256",
              "name": "",
              "type": "int256"
            }
          ],
          "stateMutability": "nonpayable",
          "type": "function"
        },
        {
          "inputs": [
            {
              "internalType": "int256",
              "name": "nb1",
              "type": "int256"
            },
            {
              "internalType": "int256",
              "name": "nb2",
              "type": "int256"
            }
          ],
          "name": "sub",
          "outputs": [
            {
              "internalType": "int256",
              "name": "",
              "type": "int256"
            }
          ],
          "stateMutability": "nonpayable",
          "type": "function"
        }
      ],
      "evm": {
        "bytecode": {
          "linkReferences": {},
          "object": "608060405266038d7ea4c6800060025534801561001b57600080fd5b50604051610b34380380610b34833981810160405281019061003d9190610099565b80600160006101000a81548173ffffffffffffffffffffffffffffffffffffffff021916908373ffffffffffffffffffffffffffffffffffffffff1602179055505061010b565b600081519050610093816100f4565b92915050565b6000602082840312156100ab57600080fd5b60006100b984828501610084565b91505092915050565b60006100cd826100d4565b9050919050565b600073ffffffffffffffffffffffffffffffffffffffff82169050919050565b6100fd816100c2565b811461010857600080fd5b50565b610a1a8061011a6000396000f3fe608060405234801561001057600080fd5b506004361061007d5760003560e01c80637bb98a681161005b5780637bb98a6814610100578063a5f3c23b1461011e578063adefc37b1461014e578063bbe93d911461017e5761007d565b806324e289281461008257806343509138146100b257806361bc221a146100e2575b600080fd5b61009c600480360381019061009791906104ce565b6101ae565b6040516100a9919061054b565b60405180910390f35b6100cc60048036038101906100c791906104ce565b610239565b6040516100d9919061054b565b60405180910390f35b6100ea610306565b6040516100f791906105bd565b60405180910390f35b610108610310565b60405161011591906105bd565b60405180910390f35b610138600480360381019061013391906104ce565b610318565b604051610145919061054b565b60405180910390f35b610168600480360381019061016391906104ce565b6103a3565b604051610175919061054b565b60405180910390f35b610198600480360381019061019391906104ce565b61042e565b6040516101a5919061054b565b60405180910390f35b6000600360008154809291906101c3906108a6565b91905055503373ffffffffffffffffffffffffffffffffffffffff167f6ee05db259e2c75313fe23e55e54d32f8e276c8579262c80d1d23d1736f1cfc28484858761020e91906105e9565b60405161021d93929190610566565b60405180910390a2818361023191906108ef565b905092915050565b600080821361027d576040517f08c379a00000000000000000000000000000000000000000000000000000000081526004016102749061059d565b60405180910390fd5b60036000815480929190610290906108a6565b91905055503373ffffffffffffffffffffffffffffffffffffffff167f32adabaab0fd62df5e0ccd310898a46217e97b7ccad549e2f5872300a4c38b99848485876102db91906105e9565b6040516102ea93929190610566565b60405180910390a281836102fe919061067d565b905092915050565b6000600354905090565b600047905090565b60006003600081548092919061032d906108a6565b91905055503373ffffffffffffffffffffffffffffffffffffffff167fddc8b811a3df463ed6dc9f3801c74ea7577bd748cb50807dd1c545d67fdbabaa8484858761037891906105e9565b60405161038793929190610566565b60405180910390a2818361039b91906105e9565b905092915050565b6000600360008154809291906103b8906108a6565b91905055503373ffffffffffffffffffffffffffffffffffffffff167f0e4c87ef17996acd138664094693fa265888c3aef77146f56bd5ad845c8c98bb8484858761040391906105e9565b60405161041293929190610566565b60405180910390a2818361042691906107fe565b905092915050565b600060036000815480929190610443906108a6565b91905055503373ffffffffffffffffffffffffffffffffffffffff167fc37c147617a73d8e64bc333614b1d85d97ee02b1d6aa350dd5c945dfb605eff08484858761048e91906105e9565b60405161049d93929190610566565b60405180910390a281836104b191906106e7565b905092915050565b6000813590506104c8816109cd565b92915050565b600080604083850312156104e157600080fd5b60006104ef858286016104b9565b9250506020610500858286016104b9565b9150509250929050565b61051381610892565b82525050565b60006105266040836105d8565b91506105318261097e565b604082019050919050565b6105458161089c565b82525050565b6000602082019050610560600083018461050a565b92915050565b600060608201905061057b600083018661050a565b610588602083018561050a565b610595604083018461050a565b949350505050565b600060208201905081810360008301526105b681610519565b9050919050565b60006020820190506105d2600083018461053c565b92915050565b600082825260208201905092915050565b60006105f482610892565b91506105ff83610892565b9250817f7fffffffffffffffffffffffffffffffffffffffffffffffffffffffffffffff0383136000831215161561063a57610639610920565b5b817f800000000000000000000000000000000000000000000000000000000000000003831260008312161561067257610671610920565b5b828201905092915050565b600061068882610892565b915061069383610892565b9250826106a3576106a261094f565b5b600160000383147f8000000000000000000000000000000000000000000000000000000000000000831416156106dc576106db610920565b5b828205905092915050565b60006106f282610892565b91506106fd83610892565b9250827f7fffffffffffffffffffffffffffffffffffffffffffffffffffffffffffffff048211600084136000841316161561073c5761073b610920565b5b817f8000000000000000000000000000000000000000000000000000000000000000058312600084126000841316161561077957610778610920565b5b827f800000000000000000000000000000000000000000000000000000000000000005821260008413600084121616156107b6576107b5610920565b5b827f7fffffffffffffffffffffffffffffffffffffffffffffffffffffffffffffff05821260008412600084121616156107f3576107f2610920565b5b828202905092915050565b600061080982610892565b915061081483610892565b9250827f80000000000000000000000000000000000000000000000000000000000000000182126000841215161561084f5761084e610920565b5b827f7fffffffffffffffffffffffffffffffffffffffffffffffffffffffffffffff01821360008412161561088757610886610920565b5b828203905092915050565b6000819050919050565b6000819050919050565b60006108b18261089c565b91507fffffffffffffffffffffffffffffffffffffffffffffffffffffffffffffffff8214156108e4576108e3610920565b5b600182019050919050565b60006108fa82610892565b915061090583610892565b9250826109155761091461094f565b5b828207905092915050565b7f4e487b7100000000000000000000000000000000000000000000000000000000600052601160045260246000fd5b7f4e487b7100000000000000000000000000000000000000000000000000000000600052601260045260246000fd5b7f4c65207365636f6e64206e6f6d62726520284469766964656e64652920646f6960008201527f74206574726520646966666572656e74206465203020657420706f7369746966602082015250565b6109d681610892565b81146109e157600080fd5b5056fea2646970667358221220fa0832516a1c470283adcb0cb8e341316a42705390c1c299870a6e67cd34dd9864736f6c63430008040033",
          "opcodes": "PUSH1 0x80 PUSH1 0x40 MSTORE PUSH7 0x38D7EA4C68000 PUSH1 0x2 SSTORE CALLVALUE DUP1 ISZERO PUSH2 0x1B JUMPI PUSH1 0x0 DUP1 REVERT JUMPDEST POP PUSH1 0x40 MLOAD PUSH2 0xB34 CODESIZE SUB DUP1 PUSH2 0xB34 DUP4 CODECOPY DUP2 DUP2 ADD PUSH1 0x40 MSTORE DUP2 ADD SWAP1 PUSH2 0x3D SWAP2 SWAP1 PUSH2 0x99 JUMP JUMPDEST DUP1 PUSH1 0x1 PUSH1 0x0 PUSH2 0x100 EXP DUP2 SLOAD DUP2 PUSH20 0xFFFFFFFFFFFFFFFFFFFFFFFFFFFFFFFFFFFFFFFF MUL NOT AND SWAP1 DUP4 PUSH20 0xFFFFFFFFFFFFFFFFFFFFFFFFFFFFFFFFFFFFFFFF AND MUL OR SWAP1 SSTORE POP POP PUSH2 0x10B JUMP JUMPDEST PUSH1 0x0 DUP2 MLOAD SWAP1 POP PUSH2 0x93 DUP2 PUSH2 0xF4 JUMP JUMPDEST SWAP3 SWAP2 POP POP JUMP JUMPDEST PUSH1 0x0 PUSH1 0x20 DUP3 DUP5 SUB SLT ISZERO PUSH2 0xAB JUMPI PUSH1 0x0 DUP1 REVERT JUMPDEST PUSH1 0x0 PUSH2 0xB9 DUP5 DUP3 DUP6 ADD PUSH2 0x84 JUMP JUMPDEST SWAP2 POP POP SWAP3 SWAP2 POP POP JUMP JUMPDEST PUSH1 0x0 PUSH2 0xCD DUP3 PUSH2 0xD4 JUMP JUMPDEST SWAP1 POP SWAP2 SWAP1 POP JUMP JUMPDEST PUSH1 0x0 PUSH20 0xFFFFFFFFFFFFFFFFFFFFFFFFFFFFFFFFFFFFFFFF DUP3 AND SWAP1 POP SWAP2 SWAP1 POP JUMP JUMPDEST PUSH2 0xFD DUP2 PUSH2 0xC2 JUMP JUMPDEST DUP2 EQ PUSH2 0x108 JUMPI PUSH1 0x0 DUP1 REVERT JUMPDEST POP JUMP JUMPDEST PUSH2 0xA1A DUP1 PUSH2 0x11A PUSH1 0x0 CODECOPY PUSH1 0x0 RETURN INVALID PUSH1 0x80 PUSH1 0x40 MSTORE CALLVALUE DUP1 ISZERO PUSH2 0x10 JUMPI PUSH1 0x0 DUP1 REVERT JUMPDEST POP PUSH1 0x4 CALLDATASIZE LT PUSH2 0x7D JUMPI PUSH1 0x0 CALLDATALOAD PUSH1 0xE0 SHR DUP1 PUSH4 0x7BB98A68 GT PUSH2 0x5B JUMPI DUP1 PUSH4 0x7BB98A68 EQ PUSH2 0x100 JUMPI DUP1 PUSH4 0xA5F3C23B EQ PUSH2 0x11E JUMPI DUP1 PUSH4 0xADEFC37B EQ PUSH2 0x14E JUMPI DUP1 PUSH4 0xBBE93D91 EQ PUSH2 0x17E JUMPI PUSH2 0x7D JUMP JUMPDEST DUP1 PUSH4 0x24E28928 EQ PUSH2 0x82 JUMPI DUP1 PUSH4 0x43509138 EQ PUSH2 0xB2 JUMPI DUP1 PUSH4 0x61BC221A EQ PUSH2 0xE2 JUMPI JUMPDEST PUSH1 0x0 DUP1 REVERT JUMPDEST PUSH2 0x9C PUSH1 0x4 DUP1 CALLDATASIZE SUB DUP2 ADD SWAP1 PUSH2 0x97 SWAP2 SWAP1 PUSH2 0x4CE JUMP JUMPDEST PUSH2 0x1AE JUMP JUMPDEST PUSH1 0x40 MLOAD PUSH2 0xA9 SWAP2 SWAP1 PUSH2 0x54B JUMP JUMPDEST PUSH1 0x40 MLOAD DUP1 SWAP2 SUB SWAP1 RETURN JUMPDEST PUSH2 0xCC PUSH1 0x4 DUP1 CALLDATASIZE SUB DUP2 ADD SWAP1 PUSH2 0xC7 SWAP2 SWAP1 PUSH2 0x4CE JUMP JUMPDEST PUSH2 0x239 JUMP JUMPDEST PUSH1 0x40 MLOAD PUSH2 0xD9 SWAP2 SWAP1 PUSH2 0x54B JUMP JUMPDEST PUSH1 0x40 MLOAD DUP1 SWAP2 SUB SWAP1 RETURN JUMPDEST PUSH2 0xEA PUSH2 0x306 JUMP JUMPDEST PUSH1 0x40 MLOAD PUSH2 0xF7 SWAP2 SWAP1 PUSH2 0x5BD JUMP JUMPDEST PUSH1 0x40 MLOAD DUP1 SWAP2 SUB SWAP1 RETURN JUMPDEST PUSH2 0x108 PUSH2 0x310 JUMP JUMPDEST PUSH1 0x40 MLOAD PUSH2 0x115 SWAP2 SWAP1 PUSH2 0x5BD JUMP JUMPDEST PUSH1 0x40 MLOAD DUP1 SWAP2 SUB SWAP1 RETURN JUMPDEST PUSH2 0x138 PUSH1 0x4 DUP1 CALLDATASIZE SUB DUP2 ADD SWAP1 PUSH2 0x133 SWAP2 SWAP1 PUSH2 0x4CE JUMP JUMPDEST PUSH2 0x318 JUMP JUMPDEST PUSH1 0x40 MLOAD PUSH2 0x145 SWAP2 SWAP1 PUSH2 0x54B JUMP JUMPDEST PUSH1 0x40 MLOAD DUP1 SWAP2 SUB SWAP1 RETURN JUMPDEST PUSH2 0x168 PUSH1 0x4 DUP1 CALLDATASIZE SUB DUP2 ADD SWAP1 PUSH2 0x163 SWAP2 SWAP1 PUSH2 0x4CE JUMP JUMPDEST PUSH2 0x3A3 JUMP JUMPDEST PUSH1 0x40 MLOAD PUSH2 0x175 SWAP2 SWAP1 PUSH2 0x54B JUMP JUMPDEST PUSH1 0x40 MLOAD DUP1 SWAP2 SUB SWAP1 RETURN JUMPDEST PUSH2 0x198 PUSH1 0x4 DUP1 CALLDATASIZE SUB DUP2 ADD SWAP1 PUSH2 0x193 SWAP2 SWAP1 PUSH2 0x4CE JUMP JUMPDEST PUSH2 0x42E JUMP JUMPDEST PUSH1 0x40 MLOAD PUSH2 0x1A5 SWAP2 SWAP1 PUSH2 0x54B JUMP JUMPDEST PUSH1 0x40 MLOAD DUP1 SWAP2 SUB SWAP1 RETURN JUMPDEST PUSH1 0x0 PUSH1 0x3 PUSH1 0x0 DUP2 SLOAD DUP1 SWAP3 SWAP2 SWAP1 PUSH2 0x1C3 SWAP1 PUSH2 0x8A6 JUMP JUMPDEST SWAP2 SWAP1 POP SSTORE POP CALLER PUSH20 0xFFFFFFFFFFFFFFFFFFFFFFFFFFFFFFFFFFFFFFFF AND PUSH32 0x6EE05DB259E2C75313FE23E55E54D32F8E276C8579262C80D1D23D1736F1CFC2 DUP5 DUP5 DUP6 DUP8 PUSH2 0x20E SWAP2 SWAP1 PUSH2 0x5E9 JUMP JUMPDEST PUSH1 0x40 MLOAD PUSH2 0x21D SWAP4 SWAP3 SWAP2 SWAP1 PUSH2 0x566 JUMP JUMPDEST PUSH1 0x40 MLOAD DUP1 SWAP2 SUB SWAP1 LOG2 DUP2 DUP4 PUSH2 0x231 SWAP2 SWAP1 PUSH2 0x8EF JUMP JUMPDEST SWAP1 POP SWAP3 SWAP2 POP POP JUMP JUMPDEST PUSH1 0x0 DUP1 DUP3 SGT PUSH2 0x27D JUMPI PUSH1 0x40 MLOAD PUSH32 0x8C379A000000000000000000000000000000000000000000000000000000000 DUP2 MSTORE PUSH1 0x4 ADD PUSH2 0x274 SWAP1 PUSH2 0x59D JUMP JUMPDEST PUSH1 0x40 MLOAD DUP1 SWAP2 SUB SWAP1 REVERT JUMPDEST PUSH1 0x3 PUSH1 0x0 DUP2 SLOAD DUP1 SWAP3 SWAP2 SWAP1 PUSH2 0x290 SWAP1 PUSH2 0x8A6 JUMP JUMPDEST SWAP2 SWAP1 POP SSTORE POP CALLER PUSH20 0xFFFFFFFFFFFFFFFFFFFFFFFFFFFFFFFFFFFFFFFF AND PUSH32 0x32ADABAAB0FD62DF5E0CCD310898A46217E97B7CCAD549E2F5872300A4C38B99 DUP5 DUP5 DUP6 DUP8 PUSH2 0x2DB SWAP2 SWAP1 PUSH2 0x5E9 JUMP JUMPDEST PUSH1 0x40 MLOAD PUSH2 0x2EA SWAP4 SWAP3 SWAP2 SWAP1 PUSH2 0x566 JUMP JUMPDEST PUSH1 0x40 MLOAD DUP1 SWAP2 SUB SWAP1 LOG2 DUP2 DUP4 PUSH2 0x2FE SWAP2 SWAP1 PUSH2 0x67D JUMP JUMPDEST SWAP1 POP SWAP3 SWAP2 POP POP JUMP JUMPDEST PUSH1 0x0 PUSH1 0x3 SLOAD SWAP1 POP SWAP1 JUMP JUMPDEST PUSH1 0x0 SELFBALANCE SWAP1 POP SWAP1 JUMP JUMPDEST PUSH1 0x0 PUSH1 0x3 PUSH1 0x0 DUP2 SLOAD DUP1 SWAP3 SWAP2 SWAP1 PUSH2 0x32D SWAP1 PUSH2 0x8A6 JUMP JUMPDEST SWAP2 SWAP1 POP SSTORE POP CALLER PUSH20 0xFFFFFFFFFFFFFFFFFFFFFFFFFFFFFFFFFFFFFFFF AND PUSH32 0xDDC8B811A3DF463ED6DC9F3801C74EA7577BD748CB50807DD1C545D67FDBABAA DUP5 DUP5 DUP6 DUP8 PUSH2 0x378 SWAP2 SWAP1 PUSH2 0x5E9 JUMP JUMPDEST PUSH1 0x40 MLOAD PUSH2 0x387 SWAP4 SWAP3 SWAP2 SWAP1 PUSH2 0x566 JUMP JUMPDEST PUSH1 0x40 MLOAD DUP1 SWAP2 SUB SWAP1 LOG2 DUP2 DUP4 PUSH2 0x39B SWAP2 SWAP1 PUSH2 0x5E9 JUMP JUMPDEST SWAP1 POP SWAP3 SWAP2 POP POP JUMP JUMPDEST PUSH1 0x0 PUSH1 0x3 PUSH1 0x0 DUP2 SLOAD DUP1 SWAP3 SWAP2 SWAP1 PUSH2 0x3B8 SWAP1 PUSH2 0x8A6 JUMP JUMPDEST SWAP2 SWAP1 POP SSTORE POP CALLER PUSH20 0xFFFFFFFFFFFFFFFFFFFFFFFFFFFFFFFFFFFFFFFF AND PUSH32 0xE4C87EF17996ACD138664094693FA265888C3AEF77146F56BD5AD845C8C98BB DUP5 DUP5 DUP6 DUP8 PUSH2 0x403 SWAP2 SWAP1 PUSH2 0x5E9 JUMP JUMPDEST PUSH1 0x40 MLOAD PUSH2 0x412 SWAP4 SWAP3 SWAP2 SWAP1 PUSH2 0x566 JUMP JUMPDEST PUSH1 0x40 MLOAD DUP1 SWAP2 SUB SWAP1 LOG2 DUP2 DUP4 PUSH2 0x426 SWAP2 SWAP1 PUSH2 0x7FE JUMP JUMPDEST SWAP1 POP SWAP3 SWAP2 POP POP JUMP JUMPDEST PUSH1 0x0 PUSH1 0x3 PUSH1 0x0 DUP2 SLOAD DUP1 SWAP3 SWAP2 SWAP1 PUSH2 0x443 SWAP1 PUSH2 0x8A6 JUMP JUMPDEST SWAP2 SWAP1 POP SSTORE POP CALLER PUSH20 0xFFFFFFFFFFFFFFFFFFFFFFFFFFFFFFFFFFFFFFFF AND PUSH32 0xC37C147617A73D8E64BC333614B1D85D97EE02B1D6AA350DD5C945DFB605EFF0 DUP5 DUP5 DUP6 DUP8 PUSH2 0x48E SWAP2 SWAP1 PUSH2 0x5E9 JUMP JUMPDEST PUSH1 0x40 MLOAD PUSH2 0x49D SWAP4 SWAP3 SWAP2 SWAP1 PUSH2 0x566 JUMP JUMPDEST PUSH1 0x40 MLOAD DUP1 SWAP2 SUB SWAP1 LOG2 DUP2 DUP4 PUSH2 0x4B1 SWAP2 SWAP1 PUSH2 0x6E7 JUMP JUMPDEST SWAP1 POP SWAP3 SWAP2 POP POP JUMP JUMPDEST PUSH1 0x0 DUP2 CALLDATALOAD SWAP1 POP PUSH2 0x4C8 DUP2 PUSH2 0x9CD JUMP JUMPDEST SWAP3 SWAP2 POP POP JUMP JUMPDEST PUSH1 0x0 DUP1 PUSH1 0x40 DUP4 DUP6 SUB SLT ISZERO PUSH2 0x4E1 JUMPI PUSH1 0x0 DUP1 REVERT JUMPDEST PUSH1 0x0 PUSH2 0x4EF DUP6 DUP3 DUP7 ADD PUSH2 0x4B9 JUMP JUMPDEST SWAP3 POP POP PUSH1 0x20 PUSH2 0x500 DUP6 DUP3 DUP7 ADD PUSH2 0x4B9 JUMP JUMPDEST SWAP2 POP POP SWAP3 POP SWAP3 SWAP1 POP JUMP JUMPDEST PUSH2 0x513 DUP2 PUSH2 0x892 JUMP JUMPDEST DUP3 MSTORE POP POP JUMP JUMPDEST PUSH1 0x0 PUSH2 0x526 PUSH1 0x40 DUP4 PUSH2 0x5D8 JUMP JUMPDEST SWAP2 POP PUSH2 0x531 DUP3 PUSH2 0x97E JUMP JUMPDEST PUSH1 0x40 DUP3 ADD SWAP1 POP SWAP2 SWAP1 POP JUMP JUMPDEST PUSH2 0x545 DUP2 PUSH2 0x89C JUMP JUMPDEST DUP3 MSTORE POP POP JUMP JUMPDEST PUSH1 0x0 PUSH1 0x20 DUP3 ADD SWAP1 POP PUSH2 0x560 PUSH1 0x0 DUP4 ADD DUP5 PUSH2 0x50A JUMP JUMPDEST SWAP3 SWAP2 POP POP JUMP JUMPDEST PUSH1 0x0 PUSH1 0x60 DUP3 ADD SWAP1 POP PUSH2 0x57B PUSH1 0x0 DUP4 ADD DUP7 PUSH2 0x50A JUMP JUMPDEST PUSH2 0x588 PUSH1 0x20 DUP4 ADD DUP6 PUSH2 0x50A JUMP JUMPDEST PUSH2 0x595 PUSH1 0x40 DUP4 ADD DUP5 PUSH2 0x50A JUMP JUMPDEST SWAP5 SWAP4 POP POP POP POP JUMP JUMPDEST PUSH1 0x0 PUSH1 0x20 DUP3 ADD SWAP1 POP DUP2 DUP2 SUB PUSH1 0x0 DUP4 ADD MSTORE PUSH2 0x5B6 DUP2 PUSH2 0x519 JUMP JUMPDEST SWAP1 POP SWAP2 SWAP1 POP JUMP JUMPDEST PUSH1 0x0 PUSH1 0x20 DUP3 ADD SWAP1 POP PUSH2 0x5D2 PUSH1 0x0 DUP4 ADD DUP5 PUSH2 0x53C JUMP JUMPDEST SWAP3 SWAP2 POP POP JUMP JUMPDEST PUSH1 0x0 DUP3 DUP3 MSTORE PUSH1 0x20 DUP3 ADD SWAP1 POP SWAP3 SWAP2 POP POP JUMP JUMPDEST PUSH1 0x0 PUSH2 0x5F4 DUP3 PUSH2 0x892 JUMP JUMPDEST SWAP2 POP PUSH2 0x5FF DUP4 PUSH2 0x892 JUMP JUMPDEST SWAP3 POP DUP2 PUSH32 0x7FFFFFFFFFFFFFFFFFFFFFFFFFFFFFFFFFFFFFFFFFFFFFFFFFFFFFFFFFFFFFFF SUB DUP4 SGT PUSH1 0x0 DUP4 SLT ISZERO AND ISZERO PUSH2 0x63A JUMPI PUSH2 0x639 PUSH2 0x920 JUMP JUMPDEST JUMPDEST DUP2 PUSH32 0x8000000000000000000000000000000000000000000000000000000000000000 SUB DUP4 SLT PUSH1 0x0 DUP4 SLT AND ISZERO PUSH2 0x672 JUMPI PUSH2 0x671 PUSH2 0x920 JUMP JUMPDEST JUMPDEST DUP3 DUP3 ADD SWAP1 POP SWAP3 SWAP2 POP POP JUMP JUMPDEST PUSH1 0x0 PUSH2 0x688 DUP3 PUSH2 0x892 JUMP JUMPDEST SWAP2 POP PUSH2 0x693 DUP4 PUSH2 0x892 JUMP JUMPDEST SWAP3 POP DUP3 PUSH2 0x6A3 JUMPI PUSH2 0x6A2 PUSH2 0x94F JUMP JUMPDEST JUMPDEST PUSH1 0x1 PUSH1 0x0 SUB DUP4 EQ PUSH32 0x8000000000000000000000000000000000000000000000000000000000000000 DUP4 EQ AND ISZERO PUSH2 0x6DC JUMPI PUSH2 0x6DB PUSH2 0x920 JUMP JUMPDEST JUMPDEST DUP3 DUP3 SDIV SWAP1 POP SWAP3 SWAP2 POP POP JUMP JUMPDEST PUSH1 0x0 PUSH2 0x6F2 DUP3 PUSH2 0x892 JUMP JUMPDEST SWAP2 POP PUSH2 0x6FD DUP4 PUSH2 0x892 JUMP JUMPDEST SWAP3 POP DUP3 PUSH32 0x7FFFFFFFFFFFFFFFFFFFFFFFFFFFFFFFFFFFFFFFFFFFFFFFFFFFFFFFFFFFFFFF DIV DUP3 GT PUSH1 0x0 DUP5 SGT PUSH1 0x0 DUP5 SGT AND AND ISZERO PUSH2 0x73C JUMPI PUSH2 0x73B PUSH2 0x920 JUMP JUMPDEST JUMPDEST DUP2 PUSH32 0x8000000000000000000000000000000000000000000000000000000000000000 SDIV DUP4 SLT PUSH1 0x0 DUP5 SLT PUSH1 0x0 DUP5 SGT AND AND ISZERO PUSH2 0x779 JUMPI PUSH2 0x778 PUSH2 0x920 JUMP JUMPDEST JUMPDEST DUP3 PUSH32 0x8000000000000000000000000000000000000000000000000000000000000000 SDIV DUP3 SLT PUSH1 0x0 DUP5 SGT PUSH1 0x0 DUP5 SLT AND AND ISZERO PUSH2 0x7B6 JUMPI PUSH2 0x7B5 PUSH2 0x920 JUMP JUMPDEST JUMPDEST DUP3 PUSH32 0x7FFFFFFFFFFFFFFFFFFFFFFFFFFFFFFFFFFFFFFFFFFFFFFFFFFFFFFFFFFFFFFF SDIV DUP3 SLT PUSH1 0x0 DUP5 SLT PUSH1 0x0 DUP5 SLT AND AND ISZERO PUSH2 0x7F3 JUMPI PUSH2 0x7F2 PUSH2 0x920 JUMP JUMPDEST JUMPDEST DUP3 DUP3 MUL SWAP1 POP SWAP3 SWAP2 POP POP JUMP JUMPDEST PUSH1 0x0 PUSH2 0x809 DUP3 PUSH2 0x892 JUMP JUMPDEST SWAP2 POP PUSH2 0x814 DUP4 PUSH2 0x892 JUMP JUMPDEST SWAP3 POP DUP3 PUSH32 0x8000000000000000000000000000000000000000000000000000000000000000 ADD DUP3 SLT PUSH1 0x0 DUP5 SLT ISZERO AND ISZERO PUSH2 0x84F JUMPI PUSH2 0x84E PUSH2 0x920 JUMP JUMPDEST JUMPDEST DUP3 PUSH32 0x7FFFFFFFFFFFFFFFFFFFFFFFFFFFFFFFFFFFFFFFFFFFFFFFFFFFFFFFFFFFFFFF ADD DUP3 SGT PUSH1 0x0 DUP5 SLT AND ISZERO PUSH2 0x887 JUMPI PUSH2 0x886 PUSH2 0x920 JUMP JUMPDEST JUMPDEST DUP3 DUP3 SUB SWAP1 POP SWAP3 SWAP2 POP POP JUMP JUMPDEST PUSH1 0x0 DUP2 SWAP1 POP SWAP2 SWAP1 POP JUMP JUMPDEST PUSH1 0x0 DUP2 SWAP1 POP SWAP2 SWAP1 POP JUMP JUMPDEST PUSH1 0x0 PUSH2 0x8B1 DUP3 PUSH2 0x89C JUMP JUMPDEST SWAP2 POP PUSH32 0xFFFFFFFFFFFFFFFFFFFFFFFFFFFFFFFFFFFFFFFFFFFFFFFFFFFFFFFFFFFFFFFF DUP3 EQ ISZERO PUSH2 0x8E4 JUMPI PUSH2 0x8E3 PUSH2 0x920 JUMP JUMPDEST JUMPDEST PUSH1 0x1 DUP3 ADD SWAP1 POP SWAP2 SWAP1 POP JUMP JUMPDEST PUSH1 0x0 PUSH2 0x8FA DUP3 PUSH2 0x892 JUMP JUMPDEST SWAP2 POP PUSH2 0x905 DUP4 PUSH2 0x892 JUMP JUMPDEST SWAP3 POP DUP3 PUSH2 0x915 JUMPI PUSH2 0x914 PUSH2 0x94F JUMP JUMPDEST JUMPDEST DUP3 DUP3 SMOD SWAP1 POP SWAP3 SWAP2 POP POP JUMP JUMPDEST PUSH32 0x4E487B7100000000000000000000000000000000000000000000000000000000 PUSH1 0x0 MSTORE PUSH1 0x11 PUSH1 0x4 MSTORE PUSH1 0x24 PUSH1 0x0 REVERT JUMPDEST PUSH32 0x4E487B7100000000000000000000000000000000000000000000000000000000 PUSH1 0x0 MSTORE PUSH1 0x12 PUSH1 0x4 MSTORE PUSH1 0x24 PUSH1 0x0 REVERT JUMPDEST PUSH32 0x4C65207365636F6E64206E6F6D62726520284469766964656E64652920646F69 PUSH1 0x0 DUP3 ADD MSTORE PUSH32 0x74206574726520646966666572656E74206465203020657420706F7369746966 PUSH1 0x20 DUP3 ADD MSTORE POP JUMP JUMPDEST PUSH2 0x9D6 DUP2 PUSH2 0x892 JUMP JUMPDEST DUP2 EQ PUSH2 0x9E1 JUMPI PUSH1 0x0 DUP1 REVERT JUMPDEST POP JUMP INVALID LOG2 PUSH5 0x6970667358 0x22 SLT KECCAK256 STATICCALL ADDMOD ORIGIN MLOAD PUSH11 0x1C470283ADCB0CB8E34131 PUSH11 0x42705390C1C299870A6E67 0xCD CALLVALUE 0xDD SWAP9 PUSH5 0x736F6C6343 STOP ADDMOD DIV STOP CALLER "
        },
        "methodIdentifiers": {
          "add(int256,int256)": "a5f3c23b",
          "balances()": "7bb98a68",
          "counter()": "61bc221a",
          "div(int256,int256)": "43509138",
          "mod(int256,int256)": "24e28928",
          "mul(int256,int256)": "bbe93d91",
          "sub(int256,int256)": "adefc37b"
        }
      }
    }
  }
}