{
  "_format": "hh-sol-artifact-1",
  "contractName": "Calculator",
  "sourceName": "contracts/Calculator.sol",
  "abi": [
    {
      "inputs": [
        {
          "internalType": "address",
          "name": "owner_",
          "type": "address"
        }
      ],
      "stateMutability": "nonpayable",
      "type": "constructor"
    },
    {
      "anonymous": false,
      "inputs": [
        {
          "indexed": true,
          "internalType": "address",
          "name": "account",
          "type": "address"
        },
        {
          "indexed": false,
          "internalType": "int256",
          "name": "nb1",
          "type": "int256"
        },
        {
          "indexed": false,
          "internalType": "int256",
          "name": "nb2",
          "type": "int256"
        },
        {
          "indexed": false,
          "internalType": "int256",
          "name": "res",
          "type": "int256"
        }
      ],
      "name": "Add",
      "type": "event"
    },
    {
      "anonymous": false,
      "inputs": [
        {
          "indexed": true,
          "internalType": "address",
          "name": "account",
          "type": "address"
        },
        {
          "indexed": false,
          "internalType": "int256",
          "name": "nb1",
          "type": "int256"
        },
        {
          "indexed": false,
          "internalType": "int256",
          "name": "nb2",
          "type": "int256"
        },
        {
          "indexed": false,
          "internalType": "int256",
          "name": "res",
          "type": "int256"
        }
      ],
      "name": "Div",
      "type": "event"
    },
    {
      "anonymous": false,
      "inputs": [
        {
          "indexed": true,
          "internalType": "address",
          "name": "account",
          "type": "address"
        },
        {
          "indexed": false,
          "internalType": "int256",
          "name": "nb1",
          "type": "int256"
        },
        {
          "indexed": false,
          "internalType": "int256",
          "name": "nb2",
          "type": "int256"
        },
        {
          "indexed": false,
          "internalType": "int256",
          "name": "res",
          "type": "int256"
        }
      ],
      "name": "Mod",
      "type": "event"
    },
    {
      "anonymous": false,
      "inputs": [
        {
          "indexed": true,
          "internalType": "address",
          "name": "account",
          "type": "address"
        },
        {
          "indexed": false,
          "internalType": "int256",
          "name": "nb1",
          "type": "int256"
        },
        {
          "indexed": false,
          "internalType": "int256",
          "name": "nb2",
          "type": "int256"
        },
        {
          "indexed": false,
          "internalType": "int256",
          "name": "res",
          "type": "int256"
        }
      ],
      "name": "Mul",
      "type": "event"
    },
    {
      "anonymous": false,
      "inputs": [
        {
          "indexed": true,
          "internalType": "address",
          "name": "account",
          "type": "address"
        },
        {
          "indexed": false,
          "internalType": "int256",
          "name": "nb1",
          "type": "int256"
        },
        {
          "indexed": false,
          "internalType": "int256",
          "name": "nb2",
          "type": "int256"
        },
        {
          "indexed": false,
          "internalType": "int256",
          "name": "res",
          "type": "int256"
        }
      ],
      "name": "Sub",
      "type": "event"
    },
    {
      "inputs": [
        {
          "internalType": "int256",
          "name": "nb1",
          "type": "int256"
        },
        {
          "internalType": "int256",
          "name": "nb2",
          "type": "int256"
        }
      ],
      "name": "add",
      "outputs": [
        {
          "internalType": "int256",
          "name": "",
          "type": "int256"
        }
      ],
      "stateMutability": "nonpayable",
      "type": "function"
    },
    {
      "inputs": [],
      "name": "balances",
      "outputs": [
        {
          "internalType": "uint256",
          "name": "",
          "type": "uint256"
        }
      ],
      "stateMutability": "view",
      "type": "function"
    },
    {
      "inputs": [
        {
          "internalType": "int256",
          "name": "nb1",
          "type": "int256"
        },
        {
          "internalType": "int256",
          "name": "nb2",
          "type": "int256"
        }
      ],
      "name": "div",
      "outputs": [
        {
          "internalType": "int256",
          "name": "",
          "type": "int256"
        }
      ],
      "stateMutability": "nonpayable",
      "type": "function"
    },
    {
      "inputs": [
        {
          "internalType": "int256",
          "name": "nb1",
          "type": "int256"
        },
        {
          "internalType": "int256",
          "name": "nb2",
          "type": "int256"
        }
      ],
      "name": "mod",
      "outputs": [
        {
          "internalType": "int256",
          "name": "",
          "type": "int256"
        }
      ],
      "stateMutability": "nonpayable",
      "type": "function"
    },
    {
      "inputs": [
        {
          "internalType": "int256",
          "name": "nb1",
          "type": "int256"
        },
        {
          "internalType": "int256",
          "name": "nb2",
          "type": "int256"
        }
      ],
      "name": "mul",
      "outputs": [
        {
          "internalType": "int256",
          "name": "",
          "type": "int256"
        }
      ],
      "stateMutability": "nonpayable",
      "type": "function"
    },
    {
      "inputs": [
        {
          "internalType": "int256",
          "name": "nb1",
          "type": "int256"
        },
        {
          "internalType": "int256",
          "name": "nb2",
          "type": "int256"
        }
      ],
      "name": "sub",
      "outputs": [
        {
          "internalType": "int256",
          "name": "",
          "type": "int256"
        }
      ],
      "stateMutability": "nonpayable",
      "type": "function"
    }
  ],
  "bytecode": "0x608060405234801561001057600080fd5b50604051610a25380380610a258339818101604052810190610032919061008e565b80600160006101000a81548173ffffffffffffffffffffffffffffffffffffffff021916908373ffffffffffffffffffffffffffffffffffffffff16021790555050610100565b600081519050610088816100e9565b92915050565b6000602082840312156100a057600080fd5b60006100ae84828501610079565b91505092915050565b60006100c2826100c9565b9050919050565b600073ffffffffffffffffffffffffffffffffffffffff82169050919050565b6100f2816100b7565b81146100fd57600080fd5b50565b6109168061010f6000396000f3fe608060405234801561001057600080fd5b50600436106100625760003560e01c806324e289281461006757806343509138146100975780637bb98a68146100c7578063a5f3c23b146100e5578063adefc37b14610115578063bbe93d9114610145575b600080fd5b610081600480360381019061007c9190610413565b610175565b60405161008e9190610490565b60405180910390f35b6100b160048036038101906100ac9190610413565b6101e8565b6040516100be9190610490565b60405180910390f35b6100cf61029d565b6040516100dc9190610502565b60405180910390f35b6100ff60048036038101906100fa9190610413565b6102a5565b60405161010c9190610490565b60405180910390f35b61012f600480360381019061012a9190610413565b610318565b60405161013c9190610490565b60405180910390f35b61015f600480360381019061015a9190610413565b61038b565b60405161016c9190610490565b60405180910390f35b60003373ffffffffffffffffffffffffffffffffffffffff167f6ee05db259e2c75313fe23e55e54d32f8e276c8579262c80d1d23d1736f1cfc2848485876101bd91906107eb565b6040516101cc939291906104ab565b60405180910390a281836101e091906107eb565b905092915050565b600080821361022c576040517f08c379a0000000000000000000000000000000000000000000000000000000008152600401610223906104e2565b60405180910390fd5b3373ffffffffffffffffffffffffffffffffffffffff167f32adabaab0fd62df5e0ccd310898a46217e97b7ccad549e2f5872300a4c38b998484858761027291906105c2565b604051610281939291906104ab565b60405180910390a2818361029591906105c2565b905092915050565b600047905090565b60003373ffffffffffffffffffffffffffffffffffffffff167fddc8b811a3df463ed6dc9f3801c74ea7577bd748cb50807dd1c545d67fdbabaa848485876102ed919061052e565b6040516102fc939291906104ab565b60405180910390a28183610310919061052e565b905092915050565b60003373ffffffffffffffffffffffffffffffffffffffff167f0e4c87ef17996acd138664094693fa265888c3aef77146f56bd5ad845c8c98bb848485876103609190610743565b60405161036f939291906104ab565b60405180910390a281836103839190610743565b905092915050565b60003373ffffffffffffffffffffffffffffffffffffffff167fc37c147617a73d8e64bc333614b1d85d97ee02b1d6aa350dd5c945dfb605eff0848485876103d3919061062c565b6040516103e2939291906104ab565b60405180910390a281836103f6919061062c565b905092915050565b60008135905061040d816108c9565b92915050565b6000806040838503121561042657600080fd5b6000610434858286016103fe565b9250506020610445858286016103fe565b9150509250929050565b610458816107d7565b82525050565b600061046b60408361051d565b91506104768261087a565b604082019050919050565b61048a816107e1565b82525050565b60006020820190506104a5600083018461044f565b92915050565b60006060820190506104c0600083018661044f565b6104cd602083018561044f565b6104da604083018461044f565b949350505050565b600060208201905081810360008301526104fb8161045e565b9050919050565b60006020820190506105176000830184610481565b92915050565b600082825260208201905092915050565b6000610539826107d7565b9150610544836107d7565b9250817f7fffffffffffffffffffffffffffffffffffffffffffffffffffffffffffffff0383136000831215161561057f5761057e61081c565b5b817f80000000000000000000000000000000000000000000000000000000000000000383126000831216156105b7576105b661081c565b5b828201905092915050565b60006105cd826107d7565b91506105d8836107d7565b9250826105e8576105e761084b565b5b600160000383147f8000000000000000000000000000000000000000000000000000000000000000831416156106215761062061081c565b5b828205905092915050565b6000610637826107d7565b9150610642836107d7565b9250827f7fffffffffffffffffffffffffffffffffffffffffffffffffffffffffffffff04821160008413600084131616156106815761068061081c565b5b817f800000000000000000000000000000000000000000000000000000000000000005831260008412600084131616156106be576106bd61081c565b5b827f800000000000000000000000000000000000000000000000000000000000000005821260008413600084121616156106fb576106fa61081c565b5b827f7fffffffffffffffffffffffffffffffffffffffffffffffffffffffffffffff05821260008412600084121616156107385761073761081c565b5b828202905092915050565b600061074e826107d7565b9150610759836107d7565b9250827f8000000000000000000000000000000000000000000000000000000000000000018212600084121516156107945761079361081c565b5b827f7fffffffffffffffffffffffffffffffffffffffffffffffffffffffffffffff0182136000841216156107cc576107cb61081c565b5b828203905092915050565b6000819050919050565b6000819050919050565b60006107f6826107d7565b9150610801836107d7565b9250826108115761081061084b565b5b828207905092915050565b7f4e487b7100000000000000000000000000000000000000000000000000000000600052601160045260246000fd5b7f4e487b7100000000000000000000000000000000000000000000000000000000600052601260045260246000fd5b7f4c65207365636f6e64206e6f6d62726520284469766964656e64652920646f6960008201527f74206574726520646966666572656e74206465203020657420706f7369746966602082015250565b6108d2816107d7565b81146108dd57600080fd5b5056fea26469706673582212201f520a9e90d3428a7421f971a8e703abdab4bfea2510576024e018b06410a13364736f6c63430008040033",
  "linkReferences": {},
  "deployedLinkReferences": {}
}