{
  "_format": "hh-sol-artifact-1",
  "contractName": "Calculator",
  "sourceName": "contracts/Calculator.sol",
  "abi": [
    {
      "inputs": [
        {
          "internalType": "int256",
          "name": "nb1",
          "type": "int256"
        },
        {
          "internalType": "int256",
          "name": "nb2",
          "type": "int256"
        }
      ],
      "name": "add",
      "outputs": [
        {
          "internalType": "int256",
          "name": "",
          "type": "int256"
        }
      ],
      "stateMutability": "pure",
      "type": "function"
    },
    {
      "inputs": [
        {
          "internalType": "int256",
          "name": "nb1",
          "type": "int256"
        },
        {
          "internalType": "int256",
          "name": "nb2",
          "type": "int256"
        }
      ],
      "name": "div",
      "outputs": [
        {
          "internalType": "int256",
          "name": "",
          "type": "int256"
        }
      ],
      "stateMutability": "pure",
      "type": "function"
    },
    {
      "inputs": [
        {
          "internalType": "int256",
          "name": "nb1",
          "type": "int256"
        },
        {
          "internalType": "int256",
          "name": "nb2",
          "type": "int256"
        }
      ],
      "name": "mod",
      "outputs": [
        {
          "internalType": "int256",
          "name": "",
          "type": "int256"
        }
      ],
      "stateMutability": "pure",
      "type": "function"
    },
    {
      "inputs": [
        {
          "internalType": "int256",
          "name": "nb1",
          "type": "int256"
        },
        {
          "internalType": "int256",
          "name": "nb2",
          "type": "int256"
        }
      ],
      "name": "mul",
      "outputs": [
        {
          "internalType": "int256",
          "name": "",
          "type": "int256"
        }
      ],
      "stateMutability": "pure",
      "type": "function"
    },
    {
      "inputs": [
        {
          "internalType": "int256",
          "name": "nb1",
          "type": "int256"
        },
        {
          "internalType": "int256",
          "name": "nb2",
          "type": "int256"
        }
      ],
      "name": "sub",
      "outputs": [
        {
          "internalType": "int256",
          "name": "",
          "type": "int256"
        }
      ],
      "stateMutability": "pure",
      "type": "function"
    }
  ],
  "bytecode": "0x608060405234801561001057600080fd5b506106a9806100206000396000f3fe608060405234801561001057600080fd5b50600436106100575760003560e01c806324e289281461005c578063435091381461008c578063a5f3c23b146100bc578063adefc37b146100ec578063bbe93d911461011c575b600080fd5b61007660048036038101906100719190610211565b61014c565b604051610083919061027f565b60405180910390f35b6100a660048036038101906100a19190610211565b610162565b6040516100b3919061027f565b60405180910390f35b6100d660048036038101906100d19190610211565b6101ba565b6040516100e3919061027f565b60405180910390f35b61010660048036038101906101019190610211565b6101d0565b604051610113919061027f565b60405180910390f35b61013660048036038101906101319190610211565b6101e6565b604051610143919061027f565b60405180910390f35b6000818361015a919061057e565b905092915050565b60008082136101a6576040517f08c379a000000000000000000000000000000000000000000000000000000000815260040161019d9061029a565b60405180910390fd5b81836101b2919061035f565b905092915050565b600081836101c891906102cb565b905092915050565b600081836101de91906104e0565b905092915050565b600081836101f491906103c9565b905092915050565b60008135905061020b8161065c565b92915050565b6000806040838503121561022457600080fd5b6000610232858286016101fc565b9250506020610243858286016101fc565b9150509250929050565b61025681610574565b82525050565b60006102696021836102ba565b91506102748261060d565b604082019050919050565b6000602082019050610294600083018461024d565b92915050565b600060208201905081810360008301526102b38161025c565b9050919050565b600082825260208201905092915050565b60006102d682610574565b91506102e183610574565b9250817f7fffffffffffffffffffffffffffffffffffffffffffffffffffffffffffffff0383136000831215161561031c5761031b6105af565b5b817f8000000000000000000000000000000000000000000000000000000000000000038312600083121615610354576103536105af565b5b828201905092915050565b600061036a82610574565b915061037583610574565b925082610385576103846105de565b5b600160000383147f8000000000000000000000000000000000000000000000000000000000000000831416156103be576103bd6105af565b5b828205905092915050565b60006103d482610574565b91506103df83610574565b9250827f7fffffffffffffffffffffffffffffffffffffffffffffffffffffffffffffff048211600084136000841316161561041e5761041d6105af565b5b817f8000000000000000000000000000000000000000000000000000000000000000058312600084126000841316161561045b5761045a6105af565b5b827f80000000000000000000000000000000000000000000000000000000000000000582126000841360008412161615610498576104976105af565b5b827f7fffffffffffffffffffffffffffffffffffffffffffffffffffffffffffffff05821260008412600084121616156104d5576104d46105af565b5b828202905092915050565b60006104eb82610574565b91506104f683610574565b9250827f800000000000000000000000000000000000000000000000000000000000000001821260008412151615610531576105306105af565b5b827f7fffffffffffffffffffffffffffffffffffffffffffffffffffffffffffffff018213600084121615610569576105686105af565b5b828203905092915050565b6000819050919050565b600061058982610574565b915061059483610574565b9250826105a4576105a36105de565b5b828207905092915050565b7f4e487b7100000000000000000000000000000000000000000000000000000000600052601160045260246000fd5b7f4e487b7100000000000000000000000000000000000000000000000000000000600052601260045260246000fd5b7f43616c63756c61746f723a2063616e6e6f7420646976696465206279207a657260008201527f6f00000000000000000000000000000000000000000000000000000000000000602082015250565b61066581610574565b811461067057600080fd5b5056fea264697066735822122022b20c2b6678447bd2d7fb18817a0f231bb0dd19ea5dc7b07af6a65da5d26d8c64736f6c63430008040033",
  "linkReferences": {},
  "deployedLinkReferences": {}
}