{
  "_format": "hh-sol-artifact-1",
  "contractName": "Calculator",
  "sourceName": "contracts/Calculator.sol",
  "abi": [
    {
      "inputs": [
        {
          "internalType": "address",
          "name": "owner_",
          "type": "address"
        }
      ],
      "stateMutability": "nonpayable",
      "type": "constructor"
    },
    {
      "anonymous": false,
      "inputs": [
        {
          "indexed": true,
          "internalType": "address",
          "name": "account",
          "type": "address"
        },
        {
          "indexed": false,
          "internalType": "int256",
          "name": "nb1",
          "type": "int256"
        },
        {
          "indexed": false,
          "internalType": "int256",
          "name": "nb2",
          "type": "int256"
        },
        {
          "indexed": false,
          "internalType": "int256",
          "name": "res",
          "type": "int256"
        }
      ],
      "name": "Add",
      "type": "event"
    },
    {
      "anonymous": false,
      "inputs": [
        {
          "indexed": true,
          "internalType": "address",
          "name": "account",
          "type": "address"
        },
        {
          "indexed": false,
          "internalType": "int256",
          "name": "nb1",
          "type": "int256"
        },
        {
          "indexed": false,
          "internalType": "int256",
          "name": "nb2",
          "type": "int256"
        },
        {
          "indexed": false,
          "internalType": "int256",
          "name": "res",
          "type": "int256"
        }
      ],
      "name": "Div",
      "type": "event"
    },
    {
      "anonymous": false,
      "inputs": [
        {
          "indexed": true,
          "internalType": "address",
          "name": "account",
          "type": "address"
        },
        {
          "indexed": false,
          "internalType": "int256",
          "name": "nb1",
          "type": "int256"
        },
        {
          "indexed": false,
          "internalType": "int256",
          "name": "nb2",
          "type": "int256"
        },
        {
          "indexed": false,
          "internalType": "int256",
          "name": "res",
          "type": "int256"
        }
      ],
      "name": "Mod",
      "type": "event"
    },
    {
      "anonymous": false,
      "inputs": [
        {
          "indexed": true,
          "internalType": "address",
          "name": "account",
          "type": "address"
        },
        {
          "indexed": false,
          "internalType": "int256",
          "name": "nb1",
          "type": "int256"
        },
        {
          "indexed": false,
          "internalType": "int256",
          "name": "nb2",
          "type": "int256"
        },
        {
          "indexed": false,
          "internalType": "int256",
          "name": "res",
          "type": "int256"
        }
      ],
      "name": "Mul",
      "type": "event"
    },
    {
      "anonymous": false,
      "inputs": [
        {
          "indexed": true,
          "internalType": "address",
          "name": "account",
          "type": "address"
        },
        {
          "indexed": false,
          "internalType": "int256",
          "name": "nb1",
          "type": "int256"
        },
        {
          "indexed": false,
          "internalType": "int256",
          "name": "nb2",
          "type": "int256"
        },
        {
          "indexed": false,
          "internalType": "int256",
          "name": "res",
          "type": "int256"
        }
      ],
      "name": "Sub",
      "type": "event"
    },
    {
      "inputs": [
        {
          "internalType": "int256",
          "name": "nb1",
          "type": "int256"
        },
        {
          "internalType": "int256",
          "name": "nb2",
          "type": "int256"
        }
      ],
      "name": "add",
      "outputs": [
        {
          "internalType": "int256",
          "name": "",
          "type": "int256"
        }
      ],
      "stateMutability": "nonpayable",
      "type": "function"
    },
    {
      "inputs": [],
      "name": "balances",
      "outputs": [
        {
          "internalType": "uint256",
          "name": "",
          "type": "uint256"
        }
      ],
      "stateMutability": "view",
      "type": "function"
    },
    {
      "inputs": [],
      "name": "counter",
      "outputs": [
        {
          "internalType": "uint256",
          "name": "",
          "type": "uint256"
        }
      ],
      "stateMutability": "view",
      "type": "function"
    },
    {
      "inputs": [
        {
          "internalType": "int256",
          "name": "nb1",
          "type": "int256"
        },
        {
          "internalType": "int256",
          "name": "nb2",
          "type": "int256"
        }
      ],
      "name": "div",
      "outputs": [
        {
          "internalType": "int256",
          "name": "",
          "type": "int256"
        }
      ],
      "stateMutability": "nonpayable",
      "type": "function"
    },
    {
      "inputs": [
        {
          "internalType": "int256",
          "name": "nb1",
          "type": "int256"
        },
        {
          "internalType": "int256",
          "name": "nb2",
          "type": "int256"
        }
      ],
      "name": "mod",
      "outputs": [
        {
          "internalType": "int256",
          "name": "",
          "type": "int256"
        }
      ],
      "stateMutability": "nonpayable",
      "type": "function"
    },
    {
      "inputs": [
        {
          "internalType": "int256",
          "name": "nb1",
          "type": "int256"
        },
        {
          "internalType": "int256",
          "name": "nb2",
          "type": "int256"
        }
      ],
      "name": "mul",
      "outputs": [
        {
          "internalType": "int256",
          "name": "",
          "type": "int256"
        }
      ],
      "stateMutability": "nonpayable",
      "type": "function"
    },
    {
      "inputs": [
        {
          "internalType": "int256",
          "name": "nb1",
          "type": "int256"
        },
        {
          "internalType": "int256",
          "name": "nb2",
          "type": "int256"
        }
      ],
      "name": "sub",
      "outputs": [
        {
          "internalType": "int256",
          "name": "",
          "type": "int256"
        }
      ],
      "stateMutability": "nonpayable",
      "type": "function"
    }
  ],
  "bytecode": "0x608060405266038d7ea4c6800060025534801561001b57600080fd5b50604051610b34380380610b34833981810160405281019061003d9190610099565b80600160006101000a81548173ffffffffffffffffffffffffffffffffffffffff021916908373ffffffffffffffffffffffffffffffffffffffff1602179055505061010b565b600081519050610093816100f4565b92915050565b6000602082840312156100ab57600080fd5b60006100b984828501610084565b91505092915050565b60006100cd826100d4565b9050919050565b600073ffffffffffffffffffffffffffffffffffffffff82169050919050565b6100fd816100c2565b811461010857600080fd5b50565b610a1a8061011a6000396000f3fe608060405234801561001057600080fd5b506004361061007d5760003560e01c80637bb98a681161005b5780637bb98a6814610100578063a5f3c23b1461011e578063adefc37b1461014e578063bbe93d911461017e5761007d565b806324e289281461008257806343509138146100b257806361bc221a146100e2575b600080fd5b61009c600480360381019061009791906104ce565b6101ae565b6040516100a9919061054b565b60405180910390f35b6100cc60048036038101906100c791906104ce565b610239565b6040516100d9919061054b565b60405180910390f35b6100ea610306565b6040516100f791906105bd565b60405180910390f35b610108610310565b60405161011591906105bd565b60405180910390f35b610138600480360381019061013391906104ce565b610318565b604051610145919061054b565b60405180910390f35b610168600480360381019061016391906104ce565b6103a3565b604051610175919061054b565b60405180910390f35b610198600480360381019061019391906104ce565b61042e565b6040516101a5919061054b565b60405180910390f35b6000600360008154809291906101c3906108a6565b91905055503373ffffffffffffffffffffffffffffffffffffffff167f6ee05db259e2c75313fe23e55e54d32f8e276c8579262c80d1d23d1736f1cfc28484858761020e91906105e9565b60405161021d93929190610566565b60405180910390a2818361023191906108ef565b905092915050565b600080821361027d576040517f08c379a00000000000000000000000000000000000000000000000000000000081526004016102749061059d565b60405180910390fd5b60036000815480929190610290906108a6565b91905055503373ffffffffffffffffffffffffffffffffffffffff167f32adabaab0fd62df5e0ccd310898a46217e97b7ccad549e2f5872300a4c38b99848485876102db91906105e9565b6040516102ea93929190610566565b60405180910390a281836102fe919061067d565b905092915050565b6000600354905090565b600047905090565b60006003600081548092919061032d906108a6565b91905055503373ffffffffffffffffffffffffffffffffffffffff167fddc8b811a3df463ed6dc9f3801c74ea7577bd748cb50807dd1c545d67fdbabaa8484858761037891906105e9565b60405161038793929190610566565b60405180910390a2818361039b91906105e9565b905092915050565b6000600360008154809291906103b8906108a6565b91905055503373ffffffffffffffffffffffffffffffffffffffff167f0e4c87ef17996acd138664094693fa265888c3aef77146f56bd5ad845c8c98bb8484858761040391906105e9565b60405161041293929190610566565b60405180910390a2818361042691906107fe565b905092915050565b600060036000815480929190610443906108a6565b91905055503373ffffffffffffffffffffffffffffffffffffffff167fc37c147617a73d8e64bc333614b1d85d97ee02b1d6aa350dd5c945dfb605eff08484858761048e91906105e9565b60405161049d93929190610566565b60405180910390a281836104b191906106e7565b905092915050565b6000813590506104c8816109cd565b92915050565b600080604083850312156104e157600080fd5b60006104ef858286016104b9565b9250506020610500858286016104b9565b9150509250929050565b61051381610892565b82525050565b60006105266040836105d8565b91506105318261097e565b604082019050919050565b6105458161089c565b82525050565b6000602082019050610560600083018461050a565b92915050565b600060608201905061057b600083018661050a565b610588602083018561050a565b610595604083018461050a565b949350505050565b600060208201905081810360008301526105b681610519565b9050919050565b60006020820190506105d2600083018461053c565b92915050565b600082825260208201905092915050565b60006105f482610892565b91506105ff83610892565b9250817f7fffffffffffffffffffffffffffffffffffffffffffffffffffffffffffffff0383136000831215161561063a57610639610920565b5b817f800000000000000000000000000000000000000000000000000000000000000003831260008312161561067257610671610920565b5b828201905092915050565b600061068882610892565b915061069383610892565b9250826106a3576106a261094f565b5b600160000383147f8000000000000000000000000000000000000000000000000000000000000000831416156106dc576106db610920565b5b828205905092915050565b60006106f282610892565b91506106fd83610892565b9250827f7fffffffffffffffffffffffffffffffffffffffffffffffffffffffffffffff048211600084136000841316161561073c5761073b610920565b5b817f8000000000000000000000000000000000000000000000000000000000000000058312600084126000841316161561077957610778610920565b5b827f800000000000000000000000000000000000000000000000000000000000000005821260008413600084121616156107b6576107b5610920565b5b827f7fffffffffffffffffffffffffffffffffffffffffffffffffffffffffffffff05821260008412600084121616156107f3576107f2610920565b5b828202905092915050565b600061080982610892565b915061081483610892565b9250827f80000000000000000000000000000000000000000000000000000000000000000182126000841215161561084f5761084e610920565b5b827f7fffffffffffffffffffffffffffffffffffffffffffffffffffffffffffffff01821360008412161561088757610886610920565b5b828203905092915050565b6000819050919050565b6000819050919050565b60006108b18261089c565b91507fffffffffffffffffffffffffffffffffffffffffffffffffffffffffffffffff8214156108e4576108e3610920565b5b600182019050919050565b60006108fa82610892565b915061090583610892565b9250826109155761091461094f565b5b828207905092915050565b7f4e487b7100000000000000000000000000000000000000000000000000000000600052601160045260246000fd5b7f4e487b7100000000000000000000000000000000000000000000000000000000600052601260045260246000fd5b7f4c65207365636f6e64206e6f6d62726520284469766964656e64652920646f6960008201527f74206574726520646966666572656e74206465203020657420706f7369746966602082015250565b6109d681610892565b81146109e157600080fd5b5056fea2646970667358221220fa0832516a1c470283adcb0cb8e341316a42705390c1c299870a6e67cd34dd9864736f6c63430008040033",
  "linkReferences": {},
  "deployedLinkReferences": {}
}